{
  "contractName": "Payroll",
  "abi": [
    {
      "constant": true,
      "inputs": [],
      "name": "owner",
      "outputs": [
        {
          "name": "",
          "type": "address"
        }
      ],
      "payable": false,
      "stateMutability": "view",
      "type": "function"
    },
    {
      "constant": true,
      "inputs": [
        {
          "name": "",
          "type": "uint256"
        }
      ],
      "name": "employeeList",
      "outputs": [
        {
          "name": "",
          "type": "address"
        }
      ],
      "payable": false,
      "stateMutability": "view",
      "type": "function"
    },
    {
      "constant": true,
      "inputs": [
        {
          "name": "",
          "type": "address"
        }
      ],
      "name": "employees",
      "outputs": [
        {
          "name": "id",
          "type": "address"
        },
        {
          "name": "salary",
          "type": "uint256"
        },
        {
          "name": "lastPayday",
          "type": "uint256"
        }
      ],
      "payable": false,
      "stateMutability": "view",
      "type": "function"
    },
    {
      "constant": false,
      "inputs": [
        {
          "name": "newOwner",
          "type": "address"
        }
      ],
      "name": "transferOwnership",
      "outputs": [],
      "payable": false,
      "stateMutability": "nonpayable",
      "type": "function"
    },
    {
      "anonymous": false,
      "inputs": [
        {
          "indexed": true,
          "name": "previousOwner",
          "type": "address"
        },
        {
          "indexed": true,
          "name": "newOwner",
          "type": "address"
        }
      ],
      "name": "OwnershipTransferred",
      "type": "event"
    },
    {
      "constant": false,
      "inputs": [
        {
          "name": "employeeId",
          "type": "address"
        },
        {
          "name": "inputsalary",
          "type": "int256"
        }
      ],
      "name": "addEmployee",
      "outputs": [],
      "payable": false,
      "stateMutability": "nonpayable",
      "type": "function"
    },
    {
      "constant": false,
      "inputs": [
        {
          "name": "employeeId",
          "type": "address"
        }
      ],
      "name": "removeEmployee",
      "outputs": [],
      "payable": false,
      "stateMutability": "nonpayable",
      "type": "function"
    },
    {
      "constant": false,
      "inputs": [
        {
          "name": "employeeId",
          "type": "address"
        },
        {
          "name": "salary",
          "type": "uint256"
        }
      ],
      "name": "updateEmployee",
      "outputs": [],
      "payable": false,
      "stateMutability": "nonpayable",
      "type": "function"
    },
    {
      "constant": false,
      "inputs": [],
      "name": "addFund",
      "outputs": [
        {
          "name": "",
          "type": "uint256"
        }
      ],
      "payable": true,
      "stateMutability": "payable",
      "type": "function"
    },
    {
      "constant": false,
      "inputs": [],
      "name": "calculateRunaway",
      "outputs": [
        {
          "name": "",
          "type": "uint256"
        }
      ],
      "payable": false,
      "stateMutability": "nonpayable",
      "type": "function"
    },
    {
      "constant": false,
      "inputs": [],
      "name": "hasEnoughFund",
      "outputs": [
        {
          "name": "",
          "type": "bool"
        }
      ],
      "payable": false,
      "stateMutability": "nonpayable",
      "type": "function"
    },
    {
      "constant": false,
      "inputs": [],
      "name": "getPaid",
      "outputs": [],
      "payable": false,
      "stateMutability": "nonpayable",
      "type": "function"
    },
    {
      "constant": false,
      "inputs": [
        {
          "name": "index",
          "type": "uint256"
        }
      ],
      "name": "checkEmployee",
      "outputs": [
        {
          "name": "employeeId",
          "type": "address"
        },
        {
          "name": "salary",
          "type": "uint256"
        },
        {
          "name": "lastPayday",
          "type": "uint256"
        }
      ],
      "payable": false,
      "stateMutability": "nonpayable",
      "type": "function"
    },
    {
      "constant": false,
      "inputs": [
        {
          "name": "oldEmployeeId",
          "type": "address"
        },
        {
          "name": "newEmployeeId",
          "type": "address"
        }
      ],
      "name": "changePaymentAddress",
      "outputs": [],
      "payable": false,
      "stateMutability": "nonpayable",
      "type": "function"
    },
    {
      "constant": false,
      "inputs": [],
      "name": "checkInfo",
      "outputs": [
        {
          "name": "balance",
          "type": "uint256"
        },
        {
          "name": "runway",
          "type": "uint256"
        },
        {
          "name": "employeeCount",
          "type": "uint256"
        }
      ],
      "payable": false,
      "stateMutability": "nonpayable",
      "type": "function"
    }
  ],
  "bytecode": "0x60606040526000600255336000806101000a81548173ffffffffffffffffffffffffffffffffffffffff021916908373ffffffffffffffffffffffffffffffffffffffff160217905550611773806100586000396000f3006060604052600436106100d0576000357c0100000000000000000000000000000000000000000000000000000000900463ffffffff1680630ef76b35146100d557806323fed09e146100fe5780635e91d8ec1461012b57806385a962581461016d5780638da5cb5b146101a457806396b02696146101f9578063a2f09dfa1461026a578063bc456c4214610288578063c3b2d07a146102e0578063cd17a51f14610343578063cf41d6f814610385578063d06789471461039a578063d108177a14610421578063f2fde38b1461045a575b600080fd5b34156100e057600080fd5b6100e8610493565b6040518082815260200191505060405180910390f35b341561010957600080fd5b6101116104bf565b604051808215151515815260200191505060405180910390f35b341561013657600080fd5b61016b600480803573ffffffffffffffffffffffffffffffffffffffff169060200190919080359060200190919050506104d0565b005b341561017857600080fd5b610180610752565b60405180848152602001838152602001828152602001935050505060405180910390f35b34156101af57600080fd5b6101b7610791565b604051808273ffffffffffffffffffffffffffffffffffffffff1673ffffffffffffffffffffffffffffffffffffffff16815260200191505060405180910390f35b341561020457600080fd5b61021a60048080359060200190919050506107b6565b604051808473ffffffffffffffffffffffffffffffffffffffff1673ffffffffffffffffffffffffffffffffffffffff168152602001838152602001828152602001935050505060405180910390f35b610272610850565b6040518082815260200191505060405180910390f35b341561029357600080fd5b6102de600480803573ffffffffffffffffffffffffffffffffffffffff1690602001909190803573ffffffffffffffffffffffffffffffffffffffff1690602001909190505061086f565b005b34156102eb57600080fd5b6103016004808035906020019091905050610b6e565b604051808273ffffffffffffffffffffffffffffffffffffffff1673ffffffffffffffffffffffffffffffffffffffff16815260200191505060405180910390f35b341561034e57600080fd5b610383600480803573ffffffffffffffffffffffffffffffffffffffff16906020019091908035906020019091905050610bad565b005b341561039057600080fd5b610398610e6a565b005b34156103a557600080fd5b6103d1600480803573ffffffffffffffffffffffffffffffffffffffff16906020019091905050611013565b604051808473ffffffffffffffffffffffffffffffffffffffff1673ffffffffffffffffffffffffffffffffffffffff168152602001838152602001828152602001935050505060405180910390f35b341561042c57600080fd5b610458600480803573ffffffffffffffffffffffffffffffffffffffff1690602001909190505061105d565b005b341561046557600080fd5b610491600480803573ffffffffffffffffffffffffffffffffffffffff1690602001909190505061145c565b005b60006002543073ffffffffffffffffffffffffffffffffffffffff16318115156104b957fe5b04905090565b6000806104ca610493565b11905090565b60008060009054906101000a900473ffffffffffffffffffffffffffffffffffffffff1673ffffffffffffffffffffffffffffffffffffffff163373ffffffffffffffffffffffffffffffffffffffff1614151561052d57600080fd5b826000600160008373ffffffffffffffffffffffffffffffffffffffff1673ffffffffffffffffffffffffffffffffffffffff168152602001908152602001600020905060008160000160009054906101000a900473ffffffffffffffffffffffffffffffffffffffff1673ffffffffffffffffffffffffffffffffffffffff16141515156105b857fe5b600160008673ffffffffffffffffffffffffffffffffffffffff1673ffffffffffffffffffffffffffffffffffffffff168152602001908152602001600020925061067883606060405190810160405290816000820160009054906101000a900473ffffffffffffffffffffffffffffffffffffffff1673ffffffffffffffffffffffffffffffffffffffff1673ffffffffffffffffffffffffffffffffffffffff168152602001600182015481526020016002820154815250506115b1565b6106ad836001015461069f670de0b6b3a7640000870260025461163d90919063ffffffff16565b61165b90919063ffffffff16565b600281905550670de0b6b3a76400008402600160008773ffffffffffffffffffffffffffffffffffffffff1673ffffffffffffffffffffffffffffffffffffffff1681526020019081526020016000206001018190555042600160008773ffffffffffffffffffffffffffffffffffffffff1673ffffffffffffffffffffffffffffffffffffffff168152602001908152602001600020600201819055505050505050565b60008060003073ffffffffffffffffffffffffffffffffffffffff1631925060045490506000600254111561078c57610789610493565b91505b909192565b6000809054906101000a900473ffffffffffffffffffffffffffffffffffffffff1681565b6000806000806003858154811015156107cb57fe5b906000526020600020900160009054906101000a900473ffffffffffffffffffffffffffffffffffffffff169350600160008573ffffffffffffffffffffffffffffffffffffffff1673ffffffffffffffffffffffffffffffffffffffff16815260200190815260200160002090508060010154925080600201549150509193909250565b60003073ffffffffffffffffffffffffffffffffffffffff1631905090565b60008060009054906101000a900473ffffffffffffffffffffffffffffffffffffffff1673ffffffffffffffffffffffffffffffffffffffff163373ffffffffffffffffffffffffffffffffffffffff161415156108cc57600080fd5b826000600160008373ffffffffffffffffffffffffffffffffffffffff1673ffffffffffffffffffffffffffffffffffffffff168152602001908152602001600020905060008160000160009054906101000a900473ffffffffffffffffffffffffffffffffffffffff1673ffffffffffffffffffffffffffffffffffffffff161415151561095757fe5b600160008673ffffffffffffffffffffffffffffffffffffffff1673ffffffffffffffffffffffffffffffffffffffff1681526020019081526020016000209250610a1783606060405190810160405290816000820160009054906101000a900473ffffffffffffffffffffffffffffffffffffffff1673ffffffffffffffffffffffffffffffffffffffff1673ffffffffffffffffffffffffffffffffffffffff168152602001600182015481526020016002820154815250506115b1565b6060604051908101604052808573ffffffffffffffffffffffffffffffffffffffff168152602001846001015481526020018460020154815250600160008673ffffffffffffffffffffffffffffffffffffffff1673ffffffffffffffffffffffffffffffffffffffff16815260200190815260200160002060008201518160000160006101000a81548173ffffffffffffffffffffffffffffffffffffffff021916908373ffffffffffffffffffffffffffffffffffffffff1602179055506020820151816001015560408201518160020155905050600160008673ffffffffffffffffffffffffffffffffffffffff1673ffffffffffffffffffffffffffffffffffffffff168152602001908152602001600020600080820160006101000a81549073ffffffffffffffffffffffffffffffffffffffff02191690556001820160009055600282016000905550505050505050565b600381815481101515610b7d57fe5b90600052602060002090016000915054906101000a900473ffffffffffffffffffffffffffffffffffffffff1681565b6000806000809054906101000a900473ffffffffffffffffffffffffffffffffffffffff1673ffffffffffffffffffffffffffffffffffffffff163373ffffffffffffffffffffffffffffffffffffffff16141515610c0b57600080fd5b836000600160008373ffffffffffffffffffffffffffffffffffffffff1673ffffffffffffffffffffffffffffffffffffffff168152602001908152602001600020905060008160000160009054906101000a900473ffffffffffffffffffffffffffffffffffffffff1673ffffffffffffffffffffffffffffffffffffffff16141515610c9557fe5b600085131515610ca157fe5b849350600160008773ffffffffffffffffffffffffffffffffffffffff1673ffffffffffffffffffffffffffffffffffffffff1681526020019081526020016000209250610d04670de0b6b3a7640000850260025461163d90919063ffffffff16565b6002819055506060604051908101604052808773ffffffffffffffffffffffffffffffffffffffff168152602001670de0b6b3a76400008602815260200142815250600160008873ffffffffffffffffffffffffffffffffffffffff1673ffffffffffffffffffffffffffffffffffffffff16815260200190815260200160002060008201518160000160006101000a81548173ffffffffffffffffffffffffffffffffffffffff021916908373ffffffffffffffffffffffffffffffffffffffff1602179055506020820151816001015560408201518160020155905050610df9600160045461163d90919063ffffffff16565b60048190555060038054806001018281610e1391906116ca565b9160005260206000209001600088909190916101000a81548173ffffffffffffffffffffffffffffffffffffffff021916908373ffffffffffffffffffffffffffffffffffffffff16021790555050505050505050565b600080336000600160008373ffffffffffffffffffffffffffffffffffffffff1673ffffffffffffffffffffffffffffffffffffffff168152602001908152602001600020905060008160000160009054906101000a900473ffffffffffffffffffffffffffffffffffffffff1673ffffffffffffffffffffffffffffffffffffffff1614151515610ef857fe5b600160003373ffffffffffffffffffffffffffffffffffffffff1673ffffffffffffffffffffffffffffffffffffffff1681526020019081526020016000209350610f51600a856002015461163d90919063ffffffff16565b92504283101515610f5e57fe5b82600160003373ffffffffffffffffffffffffffffffffffffffff1673ffffffffffffffffffffffffffffffffffffffff168152602001908152602001600020600201819055508360000160009054906101000a900473ffffffffffffffffffffffffffffffffffffffff1673ffffffffffffffffffffffffffffffffffffffff166108fc85600101549081150290604051600060405180830381858888f19350505050151561100d57600080fd5b50505050565b60016020528060005260406000206000915090508060000160009054906101000a900473ffffffffffffffffffffffffffffffffffffffff16908060010154908060020154905083565b6000806000809054906101000a900473ffffffffffffffffffffffffffffffffffffffff1673ffffffffffffffffffffffffffffffffffffffff163373ffffffffffffffffffffffffffffffffffffffff161415156110bb57600080fd5b826000600160008373ffffffffffffffffffffffffffffffffffffffff1673ffffffffffffffffffffffffffffffffffffffff168152602001908152602001600020905060008160000160009054906101000a900473ffffffffffffffffffffffffffffffffffffffff1673ffffffffffffffffffffffffffffffffffffffff161415151561114657fe5b600160008673ffffffffffffffffffffffffffffffffffffffff1673ffffffffffffffffffffffffffffffffffffffff168152602001908152602001600020935061120684606060405190810160405290816000820160009054906101000a900473ffffffffffffffffffffffffffffffffffffffff1673ffffffffffffffffffffffffffffffffffffffff1673ffffffffffffffffffffffffffffffffffffffff168152602001600182015481526020016002820154815250506115b1565b61125d600160008773ffffffffffffffffffffffffffffffffffffffff1673ffffffffffffffffffffffffffffffffffffffff1681526020019081526020016000206001015460025461165b90919063ffffffff16565b600281905550600160008673ffffffffffffffffffffffffffffffffffffffff1673ffffffffffffffffffffffffffffffffffffffff168152602001908152602001600020600080820160006101000a81549073ffffffffffffffffffffffffffffffffffffffff02191690556001820160009055600282016000905550506112f2600160045461165b90919063ffffffff16565b600481905550600092505b6003805490508360ff16101561142e578473ffffffffffffffffffffffffffffffffffffffff1660038460ff1681548110151561133657fe5b906000526020600020900160009054906101000a900473ffffffffffffffffffffffffffffffffffffffff1673ffffffffffffffffffffffffffffffffffffffff16141561142157600360016003805490500381548110151561139557fe5b906000526020600020900160009054906101000a900473ffffffffffffffffffffffffffffffffffffffff1660038460ff168154811015156113d357fe5b906000526020600020900160006101000a81548173ffffffffffffffffffffffffffffffffffffffff021916908373ffffffffffffffffffffffffffffffffffffffff16021790555061142e565b82806001019350506112fd565b611447600160038054905061165b90919063ffffffff16565b60038161145491906116f6565b505050505050565b6000809054906101000a900473ffffffffffffffffffffffffffffffffffffffff1673ffffffffffffffffffffffffffffffffffffffff163373ffffffffffffffffffffffffffffffffffffffff161415156114b757600080fd5b600073ffffffffffffffffffffffffffffffffffffffff168173ffffffffffffffffffffffffffffffffffffffff16141515156114f357600080fd5b8073ffffffffffffffffffffffffffffffffffffffff166000809054906101000a900473ffffffffffffffffffffffffffffffffffffffff1673ffffffffffffffffffffffffffffffffffffffff167f8be0079c531659141344cd1fd0a4f28419497f9722a3daafe3b4186f6b6457e060405160405180910390a3806000806101000a81548173ffffffffffffffffffffffffffffffffffffffff021916908373ffffffffffffffffffffffffffffffffffffffff16021790555050565b60006115f36115e0600a6115d285604001514261165b90919063ffffffff16565b61167490919063ffffffff16565b836020015161168f90919063ffffffff16565b9050816000015173ffffffffffffffffffffffffffffffffffffffff166108fc829081150290604051600060405180830381858888f19350505050151561163957600080fd5b5050565b600080828401905083811015151561165157fe5b8091505092915050565b600082821115151561166957fe5b818303905092915050565b600080828481151561168257fe5b0490508091505092915050565b60008060008414156116a457600091506116c3565b82840290508284828115156116b557fe5b041415156116bf57fe5b8091505b5092915050565b8154818355818115116116f1578183600052602060002091820191016116f09190611722565b5b505050565b81548183558181151161171d5781836000526020600020918201910161171c9190611722565b5b505050565b61174491905b80821115611740576000816000905550600101611728565b5090565b905600a165627a7a72305820e301b4f831260472a89dd31eb851e0a2aa50717245acab32b0d9e8bce9e6bb520029",
  "source": "pragma solidity ^0.4.14;\nimport \"./SafeMath.sol\";\nimport \"./Ownable.sol\";\ncontract Payroll is Ownable{\n    using SafeMath for uint;\n    //struct of one employee\n    struct Employee {\n        address id;\n        uint salary;\n        uint lastPayday;\n    }\n    \n    uint constant payDuration = 10 seconds;\n    //address owner = msg.sender;\n    mapping(address => Employee) public employees;\n    uint totalSalary = 0;\n    address[] public employeeList;\n    uint totalEmployee;\n    \n    /*modifier onlyOwner{\n        require(msg.sender == owner);\n        _;\n    }*/\n    modifier employeeExist(address employeeId){\n        var employee = employees[employeeId];\n        assert(employee.id != 0x0);\n        _;\n    }\n    modifier employeeNotExist(address employeeId){\n        var employee = employees[employeeId];\n        assert(employee.id == 0x0);\n        _;\n    }\n    \n    //clear the unpaid salary\n    function _partialPaid(Employee employee) private{\n        uint payment = employee.salary.mul((now.sub(employee.lastPayday)).div(payDuration));\n        employee.id.transfer(payment);\n    }\n    \n    function addEmployee(address employeeId, int inputsalary) onlyOwner employeeNotExist(employeeId) public{\n        assert(inputsalary > 0);\n        uint salary = uint(inputsalary);\n        var employee = employees[employeeId];\n        totalSalary = totalSalary.add((salary * 1 ether));\n        employees[employeeId]= Employee(employeeId,(salary * 1 ether),now);\n        totalEmployee = totalEmployee.add(1);\n        employeeList.push(employeeId);\n    }\n    \n    function removeEmployee(address employeeId) onlyOwner employeeExist(employeeId) public{\n        var employee = employees[employeeId];\n        _partialPaid(employee);\n        totalSalary = totalSalary.sub(employees[employeeId].salary);\n        delete employees[employeeId];\n        totalEmployee = totalEmployee.sub(1);\n        for(var i = 0; i < employeeList.length; i++) {\n          if(employeeList[i] == employeeId) {\n            employeeList[i] = employeeList[employeeList.length - 1];\n            break;\n          }\n        }\n       employeeList.length = employeeList.length.sub(1);\n    }\n    \n    //update the salary of one employee\n    function updateEmployee(address employeeId, uint salary) onlyOwner employeeExist(employeeId) public{\n        var employee = employees[employeeId];\n        _partialPaid(employee);\n        totalSalary = (totalSalary.add(salary * 1 ether)).sub(employee.salary);\n        employees[employeeId].salary = salary * 1 ether;\n        employees[employeeId].lastPayday = now;\n    }\n    \n    function addFund() public payable returns (uint){\n        return this.balance;\n    }\n    \n    function calculateRunaway() public returns (uint){\n        return this.balance/totalSalary;\n    }\n    \n    function hasEnoughFund() public returns (bool){\n        return calculateRunaway()>0;\n    }\n\n    //a employee get the salary of one single duration\n    function getPaid() employeeExist(msg.sender) public{\n        var employee = employees[msg.sender];\n        uint nextPayday = employee.lastPayday.add(payDuration);\n        assert(nextPayday < now);\n        employees[msg.sender].lastPayday = nextPayday;\n        employee.id.transfer(employee.salary);\n    }\n    \n    //get the basic info of an employee\n    function checkEmployee(uint index) public returns(address employeeId, uint salary, uint lastPayday){\n        employeeId = employeeList[index];\n        var employee = employees[employeeId];\n        salary = employee.salary;\n        lastPayday = employee.lastPayday;\n    }\n    \n    function changePaymentAddress(address oldEmployeeId, address newEmployeeId) onlyOwner employeeExist(oldEmployeeId) public{\n        var oldEmployee = employees[oldEmployeeId];\n        _partialPaid(oldEmployee);\n        employees[newEmployeeId] = Employee(newEmployeeId,oldEmployee.salary,oldEmployee.lastPayday);\n        delete employees[oldEmployeeId];\n    }\n\n    function checkInfo() public returns (uint balance, uint runway, uint employeeCount){\n        balance = this.balance;\n        employeeCount = totalEmployee;\n\n        if (totalSalary > 0) {\n            runway = calculateRunaway();\n        }\n    }\n    \n}",
  "sourcePath": "/home/juicebox/payroll/contracts/Payroll.sol",
  "compiler": {
    "name": "solc",
    "version": "0.4.19+commit.c4cbbb05.Emscripten.clang"
  },
  "schemaVersion": "2.0.0",
  "updatedAt": "2018-03-30T18:30:42.680Z"
}