{
  "contractName": "Payroll",
  "abi": [
    {
      "constant": true,
      "inputs": [],
      "name": "owner",
      "outputs": [
        {
          "name": "",
          "type": "address"
        }
      ],
      "payable": false,
      "stateMutability": "view",
      "type": "function"
    },
    {
      "constant": true,
      "inputs": [
        {
          "name": "",
          "type": "address"
        }
      ],
      "name": "employees",
      "outputs": [
        {
          "name": "id",
          "type": "address"
        },
        {
          "name": "salary",
          "type": "uint256"
        },
        {
          "name": "lastPayday",
          "type": "uint256"
        }
      ],
      "payable": false,
      "stateMutability": "view",
      "type": "function"
    },
    {
      "constant": false,
      "inputs": [
        {
          "name": "newOwner",
          "type": "address"
        }
      ],
      "name": "transferOwnership",
      "outputs": [],
      "payable": false,
      "stateMutability": "nonpayable",
      "type": "function"
    },
    {
      "anonymous": false,
      "inputs": [
        {
          "indexed": true,
          "name": "previousOwner",
          "type": "address"
        },
        {
          "indexed": true,
          "name": "newOwner",
          "type": "address"
        }
      ],
      "name": "OwnershipTransferred",
      "type": "event"
    },
    {
      "constant": false,
      "inputs": [
        {
          "name": "employeeId",
          "type": "address"
        },
        {
          "name": "salary",
          "type": "uint256"
        }
      ],
      "name": "addEmployee",
      "outputs": [],
      "payable": false,
      "stateMutability": "nonpayable",
      "type": "function"
    },
    {
      "constant": false,
      "inputs": [
        {
          "name": "employeeId",
          "type": "address"
        }
      ],
      "name": "removeEmployee",
      "outputs": [],
      "payable": false,
      "stateMutability": "nonpayable",
      "type": "function"
    },
    {
      "constant": false,
      "inputs": [
        {
          "name": "employeeId",
          "type": "address"
        },
        {
          "name": "salary",
          "type": "uint256"
        }
      ],
      "name": "updateEmployee",
      "outputs": [],
      "payable": false,
      "stateMutability": "nonpayable",
      "type": "function"
    },
    {
      "constant": false,
      "inputs": [
        {
          "name": "oldEmployeeId",
          "type": "address"
        },
        {
          "name": "newEmployeeId",
          "type": "address"
        }
      ],
      "name": "changePaymentAddress",
      "outputs": [],
      "payable": false,
      "stateMutability": "nonpayable",
      "type": "function"
    },
    {
      "constant": false,
      "inputs": [],
      "name": "addFund",
      "outputs": [
        {
          "name": "",
          "type": "uint256"
        }
      ],
      "payable": true,
      "stateMutability": "payable",
      "type": "function"
    },
    {
      "constant": false,
      "inputs": [],
      "name": "calculateRunway",
      "outputs": [
        {
          "name": "",
          "type": "uint256"
        }
      ],
      "payable": false,
      "stateMutability": "nonpayable",
      "type": "function"
    },
    {
      "constant": false,
      "inputs": [],
      "name": "hasEnoughFund",
      "outputs": [
        {
          "name": "",
          "type": "bool"
        }
      ],
      "payable": false,
      "stateMutability": "nonpayable",
      "type": "function"
    },
    {
      "constant": false,
      "inputs": [],
      "name": "getPaid",
      "outputs": [],
      "payable": false,
      "stateMutability": "nonpayable",
      "type": "function"
    }
  ],
  "bytecode": "0x60606040526000600155336000806101000a81548173ffffffffffffffffffffffffffffffffffffffff021916908373ffffffffffffffffffffffffffffffffffffffff1602179055506111dd806100586000396000f3006060604052600436106100af576000357c0100000000000000000000000000000000000000000000000000000000900463ffffffff16806323fed09e146100b45780634ec19512146100e15780635e91d8ec1461010a5780638da5cb5b1461014c578063a2f09dfa146101a1578063bc456c42146101bf578063cf41d6f814610217578063d06789471461022c578063d108177a146102b3578063e7fd9a13146102ec578063f2fde38b1461032e575b600080fd5b34156100bf57600080fd5b6100c7610367565b604051808215151515815260200191505060405180910390f35b34156100ec57600080fd5b6100f4610378565b6040518082815260200191505060405180910390f35b341561011557600080fd5b61014a600480803573ffffffffffffffffffffffffffffffffffffffff169060200190919080359060200190919050506103a4565b005b341561015757600080fd5b61015f610635565b604051808273ffffffffffffffffffffffffffffffffffffffff1673ffffffffffffffffffffffffffffffffffffffff16815260200191505060405180910390f35b6101a961065a565b6040518082815260200191505060405180910390f35b34156101ca57600080fd5b610215600480803573ffffffffffffffffffffffffffffffffffffffff1690602001909190803573ffffffffffffffffffffffffffffffffffffffff16906020019091905050610679565b005b341561022257600080fd5b61022a610978565b005b341561023757600080fd5b610263600480803573ffffffffffffffffffffffffffffffffffffffff16906020019091905050610b58565b604051808473ffffffffffffffffffffffffffffffffffffffff1673ffffffffffffffffffffffffffffffffffffffff168152602001838152602001828152602001935050505060405180910390f35b34156102be57600080fd5b6102ea600480803573ffffffffffffffffffffffffffffffffffffffff16906020019091905050610ba2565b005b34156102f757600080fd5b61032c600480803573ffffffffffffffffffffffffffffffffffffffff16906020019091908035906020019091905050610e1b565b005b341561033957600080fd5b610365600480803573ffffffffffffffffffffffffffffffffffffffff16906020019091905050610ff7565b005b600080610372610378565b11905090565b60006001543073ffffffffffffffffffffffffffffffffffffffff163181151561039e57fe5b04905090565b60008060009054906101000a900473ffffffffffffffffffffffffffffffffffffffff1673ffffffffffffffffffffffffffffffffffffffff163373ffffffffffffffffffffffffffffffffffffffff1614151561040157600080fd5b826000600360008373ffffffffffffffffffffffffffffffffffffffff1673ffffffffffffffffffffffffffffffffffffffff168152602001908152602001600020905060008160000160009054906101000a900473ffffffffffffffffffffffffffffffffffffffff1673ffffffffffffffffffffffffffffffffffffffff161415151561048c57fe5b600360008673ffffffffffffffffffffffffffffffffffffffff1673ffffffffffffffffffffffffffffffffffffffff168152602001908152602001600020925061054c83606060405190810160405290816000820160009054906101000a900473ffffffffffffffffffffffffffffffffffffffff1673ffffffffffffffffffffffffffffffffffffffff1673ffffffffffffffffffffffffffffffffffffffff1681526020016001820154815260200160028201548152505061114c565b600360008673ffffffffffffffffffffffffffffffffffffffff1673ffffffffffffffffffffffffffffffffffffffff16815260200190815260200160002060010154840360016000828254019250508190555083600360008773ffffffffffffffffffffffffffffffffffffffff1673ffffffffffffffffffffffffffffffffffffffff1681526020019081526020016000206001018190555042600360008773ffffffffffffffffffffffffffffffffffffffff1673ffffffffffffffffffffffffffffffffffffffff168152602001908152602001600020600201819055505050505050565b6000809054906101000a900473ffffffffffffffffffffffffffffffffffffffff1681565b60003073ffffffffffffffffffffffffffffffffffffffff1631905090565b60008060009054906101000a900473ffffffffffffffffffffffffffffffffffffffff1673ffffffffffffffffffffffffffffffffffffffff163373ffffffffffffffffffffffffffffffffffffffff161415156106d657600080fd5b826000600360008373ffffffffffffffffffffffffffffffffffffffff1673ffffffffffffffffffffffffffffffffffffffff168152602001908152602001600020905060008160000160009054906101000a900473ffffffffffffffffffffffffffffffffffffffff1673ffffffffffffffffffffffffffffffffffffffff161415151561076157fe5b600360008673ffffffffffffffffffffffffffffffffffffffff1673ffffffffffffffffffffffffffffffffffffffff168152602001908152602001600020925061082183606060405190810160405290816000820160009054906101000a900473ffffffffffffffffffffffffffffffffffffffff1673ffffffffffffffffffffffffffffffffffffffff1673ffffffffffffffffffffffffffffffffffffffff1681526020016001820154815260200160028201548152505061114c565b6060604051908101604052808573ffffffffffffffffffffffffffffffffffffffff168152602001846001015481526020018460020154815250600360008673ffffffffffffffffffffffffffffffffffffffff1673ffffffffffffffffffffffffffffffffffffffff16815260200190815260200160002060008201518160000160006101000a81548173ffffffffffffffffffffffffffffffffffffffff021916908373ffffffffffffffffffffffffffffffffffffffff1602179055506020820151816001015560408201518160020155905050600360008673ffffffffffffffffffffffffffffffffffffffff1673ffffffffffffffffffffffffffffffffffffffff168152602001908152602001600020600080820160006101000a81549073ffffffffffffffffffffffffffffffffffffffff02191690556001820160009055600282016000905550505050505050565b600080336000600360008373ffffffffffffffffffffffffffffffffffffffff1673ffffffffffffffffffffffffffffffffffffffff168152602001908152602001600020905060008160000160009054906101000a900473ffffffffffffffffffffffffffffffffffffffff1673ffffffffffffffffffffffffffffffffffffffff1614151515610a0657fe5b600360003373ffffffffffffffffffffffffffffffffffffffff1673ffffffffffffffffffffffffffffffffffffffff168152602001908152602001600020935060008460000160009054906101000a900473ffffffffffffffffffffffffffffffffffffffff1673ffffffffffffffffffffffffffffffffffffffff1614151515610a8e57fe5b600a84600201540192504283101515610aa357fe5b82600360003373ffffffffffffffffffffffffffffffffffffffff1673ffffffffffffffffffffffffffffffffffffffff168152602001908152602001600020600201819055508360000160009054906101000a900473ffffffffffffffffffffffffffffffffffffffff1673ffffffffffffffffffffffffffffffffffffffff166108fc85600101549081150290604051600060405180830381858888f193505050501515610b5257600080fd5b50505050565b60036020528060005260406000206000915090508060000160009054906101000a900473ffffffffffffffffffffffffffffffffffffffff16908060010154908060020154905083565b60008060009054906101000a900473ffffffffffffffffffffffffffffffffffffffff1673ffffffffffffffffffffffffffffffffffffffff163373ffffffffffffffffffffffffffffffffffffffff16141515610bff57600080fd5b816000600360008373ffffffffffffffffffffffffffffffffffffffff1673ffffffffffffffffffffffffffffffffffffffff168152602001908152602001600020905060008160000160009054906101000a900473ffffffffffffffffffffffffffffffffffffffff1673ffffffffffffffffffffffffffffffffffffffff1614151515610c8a57fe5b600360008573ffffffffffffffffffffffffffffffffffffffff1673ffffffffffffffffffffffffffffffffffffffff1681526020019081526020016000209250610d4a83606060405190810160405290816000820160009054906101000a900473ffffffffffffffffffffffffffffffffffffffff1673ffffffffffffffffffffffffffffffffffffffff1673ffffffffffffffffffffffffffffffffffffffff1681526020016001820154815260200160028201548152505061114c565b600360008573ffffffffffffffffffffffffffffffffffffffff1673ffffffffffffffffffffffffffffffffffffffff16815260200190815260200160002060010154600160008282540392505081905550600360008573ffffffffffffffffffffffffffffffffffffffff1673ffffffffffffffffffffffffffffffffffffffff168152602001908152602001600020600080820160006101000a81549073ffffffffffffffffffffffffffffffffffffffff021916905560018201600090556002820160009055505050505050565b60008060009054906101000a900473ffffffffffffffffffffffffffffffffffffffff1673ffffffffffffffffffffffffffffffffffffffff163373ffffffffffffffffffffffffffffffffffffffff16141515610e7857600080fd5b600360008473ffffffffffffffffffffffffffffffffffffffff1673ffffffffffffffffffffffffffffffffffffffff168152602001908152602001600020905060008160000160009054906101000a900473ffffffffffffffffffffffffffffffffffffffff1673ffffffffffffffffffffffffffffffffffffffff16141515610eff57fe5b6060604051908101604052808473ffffffffffffffffffffffffffffffffffffffff168152602001670de0b6b3a76400008402815260200142815250600360008573ffffffffffffffffffffffffffffffffffffffff1673ffffffffffffffffffffffffffffffffffffffff16815260200190815260200160002060008201518160000160006101000a81548173ffffffffffffffffffffffffffffffffffffffff021916908373ffffffffffffffffffffffffffffffffffffffff1602179055506020820151816001015560408201518160020155905050670de0b6b3a76400008202600160008282540192505081905550505050565b6000809054906101000a900473ffffffffffffffffffffffffffffffffffffffff1673ffffffffffffffffffffffffffffffffffffffff163373ffffffffffffffffffffffffffffffffffffffff1614151561105257600080fd5b600073ffffffffffffffffffffffffffffffffffffffff168173ffffffffffffffffffffffffffffffffffffffff161415151561108e57600080fd5b8073ffffffffffffffffffffffffffffffffffffffff166000809054906101000a900473ffffffffffffffffffffffffffffffffffffffff1673ffffffffffffffffffffffffffffffffffffffff167f8be0079c531659141344cd1fd0a4f28419497f9722a3daafe3b4186f6b6457e060405160405180910390a3806000806101000a81548173ffffffffffffffffffffffffffffffffffffffff021916908373ffffffffffffffffffffffffffffffffffffffff16021790555050565b6000600a8260400151420383602001510281151561116657fe5b049050816000015173ffffffffffffffffffffffffffffffffffffffff166108fc829081150290604051600060405180830381858888f1935050505015156111ad57600080fd5b50505600a165627a7a72305820443494123eb39135ed1bfe2d4d6800ca6dba48a4ce499d8a2dcb3a7317e3bcc60029",
  "source": "pragma solidity ^0.4.14;\nimport './Ownable.sol';\nimport './SafeMath.sol';\n\ncontract Payroll is Ownable{\n    \n    using SafeMath for uint8;\n    // \n    uint totalSalary = 0 ;\n    // \n    struct Employee {\n        address id;\n        uint salary;\n        uint lastPayday;\n    }\n    \n    \n    uint constant payDuration = 10 seconds;\n    // contract owner ,initialed first time and immutable further more\n    address owner;\n    \n    mapping(address=> Employee) public employees;\n\n    modifier employeeExist(address employeeId) {\n        var employee= employees[employeeId];\n        assert(employee.id !=0x0);\n        _;\n    }\n    \n    function _partialPaid(Employee employee) private {\n        uint payment =  employee.salary * (now - employee.lastPayday)/ payDuration;\n        employee.id.transfer(payment);\n    }\n    \n\n    function addEmployee(address employeeId, uint salary) onlyOwner {\n        var employee = employees[employeeId];\n        assert(employee.id ==0x0);\n        employees[employeeId] = Employee(employeeId,salary * 1 ether,now);\n        // update totalSalary after add \n        totalSalary += salary * 1 ether;\n    }\n    \n    function removeEmployee(address employeeId) onlyOwner employeeExist(employeeId){\n        var employee = employees[employeeId];\n        _partialPaid(employee);\n        \n        // update totalSalary after remove \n        totalSalary -= employees[employeeId].salary;\n        \n        delete employees[employeeId];\n    }\n    \n    \n    function updateEmployee(address employeeId, uint salary) onlyOwner employeeExist(employeeId){\n         var employee = employees[employeeId];\n         _partialPaid(employee);\n         // update totalSalary after update\n         totalSalary += (salary - employees[employeeId].salary);\n         \n        employees[employeeId].salary = salary;\n        employees[employeeId].lastPayday = now;\n    }\n    \n    function changePaymentAddress(address oldEmployeeId,address newEmployeeId) onlyOwner employeeExist(oldEmployeeId){\n         var oldEmployee = employees[oldEmployeeId];\n         _partialPaid(oldEmployee);\n         // finish cleanup for old employee address\n         employees[newEmployeeId] = Employee(newEmployeeId,oldEmployee.salary,oldEmployee.lastPayday);\n         delete employees[oldEmployeeId];\n    }\n    \n    function addFund() payable returns (uint) {\n        return this.balance;\n    }\n    \n    function calculateRunway() returns (uint) {\n        return this.balance / totalSalary;\n    }\n    \n    function hasEnoughFund() returns (bool) {\n        return calculateRunway() >0;\n    }\n    \n    \n    function getPaid() employeeExist(msg.sender){\n        var employee = employees[msg.sender];\n        assert(employee.id !=0x0);\n        \n        uint nextPayday = employee.lastPayday + payDuration;\n        \n        assert(nextPayday<now);\n        \n        employees[msg.sender].lastPayday = nextPayday;\n        \n        employee.id.transfer(employee.salary);\n    }\n}\n\n",
  "sourcePath": "/Users/william/work/Team-J/Lesson-4/assignment/payroll/contracts/payroll.sol",
  "compiler": {
    "name": "solc",
    "version": "0.4.19+commit.c4cbbb05.Emscripten.clang"
  },
  "schemaVersion": "2.0.0",
  "updatedAt": "2018-03-24T16:13:54.252Z"
}